{
  "contractName": "Counter",
  "abi": [
    {
      "anonymous": false,
      "inputs": [
        {
          "indexed": false,
          "internalType": "address",
          "name": "from",
          "type": "address"
        },
        {
          "indexed": false,
          "internalType": "uint256",
          "name": "by",
          "type": "uint256"
        }
      ],
      "name": "Incremented",
      "type": "event"
    },
    {
      "inputs": [
        {
          "internalType": "uint256",
          "name": "value",
          "type": "uint256"
        }
      ],
      "name": "increment",
      "outputs": [],
      "stateMutability": "nonpayable",
      "type": "function"
    }
  ],
  "bytecode": "0x608060405234801561001057600080fd5b5061023c806100206000396000f3fe608060405234801561001057600080fd5b506004361061002b5760003560e01c80637cf5dab014610030575b600080fd5b61004a600480360381019061004591906100db565b61004c565b005b8060008082825461005d9190610137565b925050819055507f38ac789ed44572701765277c4d0970f2db1c1a571ed39e84358095ae4eaa542033826040516100959291906101dd565b60405180910390a150565b600080fd5b6000819050919050565b6100b8816100a5565b81146100c357600080fd5b50565b6000813590506100d5816100af565b92915050565b6000602082840312156100f1576100f06100a0565b5b60006100ff848285016100c6565b91505092915050565b7f4e487b7100000000000000000000000000000000000000000000000000000000600052601160045260246000fd5b6000610142826100a5565b915061014d836100a5565b9250827fffffffffffffffffffffffffffffffffffffffffffffffffffffffffffffffff0382111561018257610181610108565b5b828201905092915050565b600073ffffffffffffffffffffffffffffffffffffffff82169050919050565b60006101b88261018d565b9050919050565b6101c8816101ad565b82525050565b6101d7816100a5565b82525050565b60006040820190506101f260008301856101bf565b6101ff60208301846101ce565b939250505056fea264697066735822122072834524b3ee30e2b953db63515fc66272b7245946cfc2523dcc3e81b659ac6464736f6c63430008090033",
  "immutableReferences": {},
  "source": "pragma solidity ^0.8.0;\n\n/**\n * @dev Counter contract for demo purposes\n *\n */\ncontract Counter {\n    uint256 counter;\n\n    event Incremented(address from, uint256 by);\n\n    /**\n    * @dev increment counter of `value`\n    */\n    function increment(uint256 value) public {\n        counter += value;\n        emit Incremented(msg.sender, value);\n    }\n}\n",
  "sourcePath": "/home/ggarrido/workspace/quorum-test-network/smart-contracts/Counter.sol",
  "compiler": {
    "name": "solc",
    "version": "0.8.9+commit.e5eed63a.Emscripten.clang"
  },
  "schemaVersion": "3.2.5",
  "updatedAt": "2021-10-06T06:18:19.133Z",
  "devdoc": {
    "details": "Counter contract for demo purposes",
    "kind": "dev",
    "methods": {
      "increment(uint256)": {
        "details": "increment counter of `value`"
      }
    },
    "version": 1
  },
  "userdoc": {
    "kind": "user",
    "methods": {},
    "version": 1
  }
}