{
  "contractName": "Counter",
  "abi": [
    {
      "anonymous": false,
      "inputs": [
        {
          "indexed": false,
          "internalType": "address",
          "name": "from",
          "type": "address"
        },
        {
          "indexed": false,
          "internalType": "uint256",
          "name": "by",
          "type": "uint256"
        }
      ],
      "name": "Incremented",
      "type": "event"
    },
    {
      "constant": false,
      "inputs": [
        {
          "internalType": "uint256",
          "name": "value",
          "type": "uint256"
        }
      ],
      "name": "increment",
      "outputs": [],
      "payable": false,
      "stateMutability": "nonpayable",
      "type": "function"
    }
  ],
  "bytecode": "0x6080604052348015600f57600080fd5b5061010a8061001f6000396000f3fe6080604052348015600f57600080fd5b506004361060285760003560e01c80637cf5dab014602d575b600080fd5b605660048036036020811015604157600080fd5b81019080803590602001909291905050506058565b005b8060008082825401925050819055507f38ac789ed44572701765277c4d0970f2db1c1a571ed39e84358095ae4eaa54203382604051808373ffffffffffffffffffffffffffffffffffffffff1673ffffffffffffffffffffffffffffffffffffffff1681526020018281526020019250505060405180910390a15056fea265627a7a72315820ab0747ba1e1c3c7950c603d681ff761b170024cda9993c3ff2b2b0b8b44a50e864736f6c63430005100032",
  "source": "pragma solidity ^0.5.0;\n\n/**\n * @dev Counter contract for demo purposes\n *\n */\ncontract Counter {\n    uint256 counter;\n\n    event Incremented(address from, uint256 by);\n\n    /**\n    * @dev increment counter of `value`\n    */\n    function increment(uint256 value) public {\n        counter += value;\n        emit Incremented(msg.sender, value);\n    }\n}\n",
  "sourcePath": "/home/ggarrido/workspace/orchestrate-quick-start/smart-contracts/Counter.sol",
  "compiler": {
    "name": "solc",
    "version": "0.5.16+commit.9c3226ce.Emscripten.clang"
  },
  "schemaVersion": "3.1.0",
  "updatedAt": "2020-07-07T09:21:31.084Z",
  "devdoc": {
    "details": "Counter contract for demo purposes ",
    "methods": {
      "increment(uint256)": {
        "details": "increment counter of `value`"
      }
    }
  },
  "userdoc": {
    "methods": {}
  }
}